{
  "_format": "hh-sol-artifact-1",
  "contractName": "Lock",
  "sourceName": "contracts/Lock.sol",
  "abi": [
    {
      "inputs": [],
      "name": "retrieveDocument",
      "outputs": [
        {
          "internalType": "string",
          "name": "",
          "type": "string"
        }
      ],
      "stateMutability": "view",
      "type": "function"
    },
    {
      "inputs": [
        {
          "internalType": "string",
          "name": "_documentHash",
          "type": "string"
        }
      ],
      "name": "storeDocument",
      "outputs": [],
      "stateMutability": "nonpayable",
      "type": "function"
    }
  ],
  "bytecode": "0x608060405234801561001057600080fd5b506106c8806100206000396000f3fe608060405234801561001057600080fd5b50600436106100365760003560e01c80637564f0751461003b578063b644f35014610059575b600080fd5b610043610075565b60405161005091906101f6565b60405180910390f35b610073600480360381019061006e9190610361565b610107565b005b606060018054610084906103d9565b80601f01602080910402602001604051908101604052809291908181526020018280546100b0906103d9565b80156100fd5780601f106100d2576101008083540402835291602001916100fd565b820191906000526020600020905b8154815290600101906020018083116100e057829003601f168201915b5050505050905090565b806000803373ffffffffffffffffffffffffffffffffffffffff1673ffffffffffffffffffffffffffffffffffffffff168152602001908152602001600020908161015291906105c0565b50806001908161016291906105c0565b5050565b600081519050919050565b600082825260208201905092915050565b60005b838110156101a0578082015181840152602081019050610185565b60008484015250505050565b6000601f19601f8301169050919050565b60006101c882610166565b6101d28185610171565b93506101e2818560208601610182565b6101eb816101ac565b840191505092915050565b6000602082019050818103600083015261021081846101bd565b905092915050565b6000604051905090565b600080fd5b600080fd5b600080fd5b600080fd5b7f4e487b7100000000000000000000000000000000000000000000000000000000600052604160045260246000fd5b61026e826101ac565b810181811067ffffffffffffffff8211171561028d5761028c610236565b5b80604052505050565b60006102a0610218565b90506102ac8282610265565b919050565b600067ffffffffffffffff8211156102cc576102cb610236565b5b6102d5826101ac565b9050602081019050919050565b82818337600083830152505050565b60006103046102ff846102b1565b610296565b9050828152602081018484840111156103205761031f610231565b5b61032b8482856102e2565b509392505050565b600082601f8301126103485761034761022c565b5b81356103588482602086016102f1565b91505092915050565b60006020828403121561037757610376610222565b5b600082013567ffffffffffffffff81111561039557610394610227565b5b6103a184828501610333565b91505092915050565b7f4e487b7100000000000000000000000000000000000000000000000000000000600052602260045260246000fd5b600060028204905060018216806103f157607f821691505b602082108103610404576104036103aa565b5b50919050565b60008190508160005260206000209050919050565b60006020601f8301049050919050565b600082821b905092915050565b60006008830261046c7fffffffffffffffffffffffffffffffffffffffffffffffffffffffffffffffff8261042f565b610476868361042f565b95508019841693508086168417925050509392505050565b6000819050919050565b6000819050919050565b60006104bd6104b86104b38461048e565b610498565b61048e565b9050919050565b6000819050919050565b6104d7836104a2565b6104eb6104e3826104c4565b84845461043c565b825550505050565b600090565b6105006104f3565b61050b8184846104ce565b505050565b5b8181101561052f576105246000826104f8565b600181019050610511565b5050565b601f821115610574576105458161040a565b61054e8461041f565b8101602085101561055d578190505b6105716105698561041f565b830182610510565b50505b505050565b600082821c905092915050565b600061059760001984600802610579565b1980831691505092915050565b60006105b08383610586565b9150826002028217905092915050565b6105c982610166565b67ffffffffffffffff8111156105e2576105e1610236565b5b6105ec82546103d9565b6105f7828285610533565b600060209050601f83116001811461062a5760008415610618578287015190505b61062285826105a4565b86555061068a565b601f1984166106388661040a565b60005b828110156106605784890151825560018201915060208501945060208101905061063b565b8683101561067d5784890151610679601f891682610586565b8355505b6001600288020188555050505b50505050505056fea2646970667358221220ef4335669b08d8e4815c95badcb813ffb12bd025585cec47c44d4234d6af581264736f6c63430008130033",
  "linkReferences": {},
  "deployedLinkReferences": {}
}